{
  "contractName": "Scorecard",
  "abi": [
    {
      "inputs": [],
      "stateMutability": "nonpayable",
      "type": "constructor"
    },
    {
      "anonymous": false,
      "inputs": [
        {
          "indexed": false,
          "internalType": "string",
          "name": "_studentFirstName",
          "type": "string"
        },
        {
          "indexed": false,
          "internalType": "string",
          "name": "_studentLastName",
          "type": "string"
        },
        {
          "indexed": false,
          "internalType": "uint256",
          "name": "_studentId",
          "type": "uint256"
        }
      ],
      "name": "studentAdded",
      "type": "event"
    },
    {
      "anonymous": false,
      "inputs": [
        {
          "indexed": false,
          "internalType": "uint256",
          "name": "_studentId",
          "type": "uint256"
        },
        {
          "indexed": false,
          "internalType": "uint256",
          "name": "_englishMarks",
          "type": "uint256"
        },
        {
          "indexed": false,
          "internalType": "uint256",
          "name": "_mathMarks",
          "type": "uint256"
        },
        {
          "indexed": false,
          "internalType": "uint256",
          "name": "_scienceMarks",
          "type": "uint256"
        }
      ],
      "name": "studentScoresRecorded",
      "type": "event"
    },
    {
      "inputs": [],
      "name": "classTeacher",
      "outputs": [
        {
          "internalType": "address",
          "name": "",
          "type": "address"
        }
      ],
      "stateMutability": "view",
      "type": "function",
      "constant": true
    },
    {
      "inputs": [
        {
          "internalType": "string",
          "name": "_studentFirstName",
          "type": "string"
        },
        {
          "internalType": "string",
          "name": "_studentLastName",
          "type": "string"
        }
      ],
      "name": "addStudentDetails",
      "outputs": [],
      "stateMutability": "nonpayable",
      "type": "function"
    },
    {
      "inputs": [
        {
          "internalType": "uint256",
          "name": "_studentId",
          "type": "uint256"
        },
        {
          "internalType": "uint256",
          "name": "_englishMarks",
          "type": "uint256"
        },
        {
          "internalType": "uint256",
          "name": "_mathMarks",
          "type": "uint256"
        },
        {
          "internalType": "uint256",
          "name": "_scienceMarks",
          "type": "uint256"
        }
      ],
      "name": "addStudentScores",
      "outputs": [],
      "stateMutability": "nonpayable",
      "type": "function"
    }
  ],
  "bytecode": "0x60806040526000805534801561001457600080fd5b5033600160006101000a81548173ffffffffffffffffffffffffffffffffffffffff021916908373ffffffffffffffffffffffffffffffffffffffff160217905550610b05806100656000396000f3fe608060405234801561001057600080fd5b50600436106100415760003560e01c80634c94ebbb14610046578063a24232c514610062578063be645d0a1461007e575b600080fd5b610060600480360381019061005b919061034f565b61009c565b005b61007c600480360381019061007791906104fc565b6101ad565b005b6100866102df565b60405161009391906105b5565b60405180910390f35b338073ffffffffffffffffffffffffffffffffffffffff16600160009054906101000a900473ffffffffffffffffffffffffffffffffffffffff1673ffffffffffffffffffffffffffffffffffffffff161461012d576040517f08c379a000000000000000000000000000000000000000000000000000000000815260040161012490610653565b60405180910390fd5b60006003600087815260200190815260200160002090508481600101819055508381600201819055508281600301819055508581600001819055507ff37378b436df9c133c295a383bc635d84430a23d7801ffa2dbfd18f9e191156a8686868660405161019d9493929190610682565b60405180910390a1505050505050565b338073ffffffffffffffffffffffffffffffffffffffff16600160009054906101000a900473ffffffffffffffffffffffffffffffffffffffff1673ffffffffffffffffffffffffffffffffffffffff161461023e576040517f08c379a000000000000000000000000000000000000000000000000000000000815260040161023590610653565b60405180910390fd5b6000600260008054815260200190815260200160002090508381600001908161026791906108de565b508281600101908161027991906108de565b5060005481600201819055507faee3b08f60bd17d98cf5318d54d8104d3f63cd7878cb5ee81a3ab7d3c8ef1d3d84846000546040516102ba93929190610a13565b60405180910390a16000808154809291906102d490610a87565b919050555050505050565b600160009054906101000a900473ffffffffffffffffffffffffffffffffffffffff1681565b6000604051905090565b600080fd5b600080fd5b6000819050919050565b61032c81610319565b811461033757600080fd5b50565b60008135905061034981610323565b92915050565b600080600080608085870312156103695761036861030f565b5b60006103778782880161033a565b94505060206103888782880161033a565b93505060406103998782880161033a565b92505060606103aa8782880161033a565b91505092959194509250565b600080fd5b600080fd5b6000601f19601f8301169050919050565b7f4e487b7100000000000000000000000000000000000000000000000000000000600052604160045260246000fd5b610409826103c0565b810181811067ffffffffffffffff82111715610428576104276103d1565b5b80604052505050565b600061043b610305565b90506104478282610400565b919050565b600067ffffffffffffffff821115610467576104666103d1565b5b610470826103c0565b9050602081019050919050565b82818337600083830152505050565b600061049f61049a8461044c565b610431565b9050828152602081018484840111156104bb576104ba6103bb565b5b6104c684828561047d565b509392505050565b600082601f8301126104e3576104e26103b6565b5b81356104f384826020860161048c565b91505092915050565b600080604083850312156105135761051261030f565b5b600083013567ffffffffffffffff81111561053157610530610314565b5b61053d858286016104ce565b925050602083013567ffffffffffffffff81111561055e5761055d610314565b5b61056a858286016104ce565b9150509250929050565b600073ffffffffffffffffffffffffffffffffffffffff82169050919050565b600061059f82610574565b9050919050565b6105af81610594565b82525050565b60006020820190506105ca60008301846105a6565b92915050565b600082825260208201905092915050565b7f4f6e6c792074686520636c61737320746561636865722068617320616363657360008201527f7320746f20746869732066756e6374696f6e0000000000000000000000000000602082015250565b600061063d6032836105d0565b9150610648826105e1565b604082019050919050565b6000602082019050818103600083015261066c81610630565b9050919050565b61067c81610319565b82525050565b60006080820190506106976000830187610673565b6106a46020830186610673565b6106b16040830185610673565b6106be6060830184610673565b95945050505050565b600081519050919050565b7f4e487b7100000000000000000000000000000000000000000000000000000000600052602260045260246000fd5b6000600282049050600182168061071957607f821691505b60208210810361072c5761072b6106d2565b5b50919050565b60008190508160005260206000209050919050565b60006020601f8301049050919050565b600082821b905092915050565b6000600883026107947fffffffffffffffffffffffffffffffffffffffffffffffffffffffffffffffff82610757565b61079e8683610757565b95508019841693508086168417925050509392505050565b6000819050919050565b60006107db6107d66107d184610319565b6107b6565b610319565b9050919050565b6000819050919050565b6107f5836107c0565b610809610801826107e2565b848454610764565b825550505050565b600090565b61081e610811565b6108298184846107ec565b505050565b5b8181101561084d57610842600082610816565b60018101905061082f565b5050565b601f8211156108925761086381610732565b61086c84610747565b8101602085101561087b578190505b61088f61088785610747565b83018261082e565b50505b505050565b600082821c905092915050565b60006108b560001984600802610897565b1980831691505092915050565b60006108ce83836108a4565b9150826002028217905092915050565b6108e7826106c7565b67ffffffffffffffff811115610900576108ff6103d1565b5b61090a8254610701565b610915828285610851565b600060209050601f8311600181146109485760008415610936578287015190505b61094085826108c2565b8655506109a8565b601f19841661095686610732565b60005b8281101561097e57848901518255600182019150602085019450602081019050610959565b8683101561099b5784890151610997601f8916826108a4565b8355505b6001600288020188555050505b505050505050565b60005b838110156109ce5780820151818401526020810190506109b3565b60008484015250505050565b60006109e5826106c7565b6109ef81856105d0565b93506109ff8185602086016109b0565b610a08816103c0565b840191505092915050565b60006060820190508181036000830152610a2d81866109da565b90508181036020830152610a4181856109da565b9050610a506040830184610673565b949350505050565b7f4e487b7100000000000000000000000000000000000000000000000000000000600052601160045260246000fd5b6000610a9282610319565b91507fffffffffffffffffffffffffffffffffffffffffffffffffffffffffffffffff8203610ac457610ac3610a58565b5b60018201905091905056fea264697066735822122040257da2952cc3d943b118482a84ce842dd5ec596f5c28b8327ca7b4adeb949164736f6c63430008110033",
  "immutableReferences": {},
  "source": "// SPDX-License-Identifier: GPL-3.0\n\npragma solidity >= 0.4.0 < 0.9.0;\n\ncontract Scorecard {\n    uint256 studentCount = 0;\n    address public classTeacher;\n\n    constructor() {\n        classTeacher = msg.sender;\n    }\n\n    modifier onlyClassTeacher(address _classTeacher) {\n        require(classTeacher == _classTeacher, \"Only the class teacher has access to this function\");\n        _;\n    }\n\n    struct StudentDetails {\n        string studentFirstName;\n        string studentLastName;\n        uint256 id;\n    }\n\n    struct Score {\n        uint256 studentId;\n        uint256 englishMarks;\n        uint256 mathMarks;\n        uint256 scienceMarks;\n    }\n\n    mapping(uint => StudentDetails) students;\n    mapping(uint => Score) scores;\n\n    event studentAdded(string _studentFirstName, string _studentLastName, uint256 _studentId);\n    event studentScoresRecorded(uint256 _studentId, uint256 _englishMarks, uint256 _mathMarks, uint256 _scienceMarks);\n\n    function addStudentDetails(string memory _studentFirstName,\n                                string memory  _studentLastName\n    ) public onlyClassTeacher(msg.sender) {\n        StudentDetails storage studentObj = students[studentCount];\n\n        studentObj.studentFirstName = _studentFirstName;\n        studentObj.studentLastName = _studentLastName;\n        studentObj.id = studentCount;\n\n        emit studentAdded(_studentFirstName, _studentLastName, studentCount);\n\n        studentCount++;\n    }\n\n    function addStudentScores(uint256 _studentId,\n                                uint256 _englishMarks,\n                                uint256 _mathMarks,\n                                uint256 _scienceMarks\n    ) public onlyClassTeacher(msg.sender) {\n        Score storage scoreObject = scores[_studentId];\n\n        scoreObject.englishMarks = _englishMarks;\n        scoreObject.mathMarks = _mathMarks;\n        scoreObject.scienceMarks = _scienceMarks;\n        scoreObject.studentId = _studentId;\n\n        emit studentScoresRecorded(_studentId, _englishMarks, _mathMarks, _scienceMarks);\n    }\n\n}\n",
  "sourcePath": "/home/boris/Code/experiments/edk/scorecard/contracts/Scorecard.sol",
  "compiler": {
    "name": "solc",
    "version": "0.8.17+commit.8df45f5f.Emscripten.clang"
  },
  "schemaVersion": "3.4.15",
  "updatedAt": "2023-09-25T08:34:09.776Z",
  "networkType": "ethereum",
  "devdoc": {
    "kind": "dev",
    "methods": {},
    "version": 1
  },
  "userdoc": {
    "kind": "user",
    "methods": {},
    "version": 1
  }
}